{
  "_format": "hh-sol-artifact-1",
  "contractName": "SwapContract",
  "sourceName": "contracts/SwapContract.sol",
  "abi": [
    {
      "inputs": [
        {
          "internalType": "contract ISwapRouter",
          "name": "_swapRouter",
          "type": "address"
        }
      ],
      "stateMutability": "nonpayable",
      "type": "constructor"
    },
    {
      "inputs": [
        {
          "internalType": "address",
          "name": "_tokenIn",
          "type": "address"
        },
        {
          "internalType": "address",
          "name": "_tokenOut",
          "type": "address"
        },
        {
          "internalType": "uint256",
          "name": "_amountIn",
          "type": "uint256"
        }
      ],
      "name": "swapExactInputSingle",
      "outputs": [
        {
          "internalType": "uint256",
          "name": "amountOut",
          "type": "uint256"
        }
      ],
      "stateMutability": "nonpayable",
      "type": "function"
    },
    {
      "inputs": [],
      "name": "swapRouter",
      "outputs": [
        {
          "internalType": "contract ISwapRouter",
          "name": "",
          "type": "address"
        }
      ],
      "stateMutability": "view",
      "type": "function"
    },
    {
      "inputs": [
        {
          "internalType": "uint256",
          "name": "",
          "type": "uint256"
        }
      ],
      "name": "transcations",
      "outputs": [
        {
          "internalType": "address",
          "name": "user",
          "type": "address"
        },
        {
          "internalType": "address",
          "name": "swappedToken",
          "type": "address"
        },
        {
          "internalType": "address",
          "name": "receivedToken",
          "type": "address"
        },
        {
          "internalType": "uint256",
          "name": "receivedTokenAmount",
          "type": "uint256"
        }
      ],
      "stateMutability": "view",
      "type": "function"
    }
  ],
  "bytecode": "0x60a06040523480156200001157600080fd5b506040516200121f3803806200121f8339818101604052810190620000379190620000f0565b8073ffffffffffffffffffffffffffffffffffffffff1660808173ffffffffffffffffffffffffffffffffffffffff16815250505062000122565b600080fd5b600073ffffffffffffffffffffffffffffffffffffffff82169050919050565b6000620000a48262000077565b9050919050565b6000620000b88262000097565b9050919050565b620000ca81620000ab565b8114620000d657600080fd5b50565b600081519050620000ea81620000bf565b92915050565b60006020828403121562000109576200010862000072565b5b60006200011984828501620000d9565b91505092915050565b6080516110d36200014c600039600081816101590152818161031d01526103e301526110d36000f3fe608060405234801561001057600080fd5b50600436106100415760003560e01c806378e8691d14610046578063c31c9c0714610079578063ceb9201214610097575b600080fd5b610060600480360381019061005b91906108fe565b6100c7565b604051610070949392919061097b565b60405180910390f35b610081610157565b60405161008e9190610a1f565b60405180910390f35b6100b160048036038101906100ac9190610a66565b61017b565b6040516100be9190610ab9565b60405180910390f35b60016020528060005260406000206000915090508060000160009054906101000a900473ffffffffffffffffffffffffffffffffffffffff16908060010160009054906101000a900473ffffffffffffffffffffffffffffffffffffffff16908060020160009054906101000a900473ffffffffffffffffffffffffffffffffffffffff16908060030154905084565b7f000000000000000000000000000000000000000000000000000000000000000081565b60008073ffffffffffffffffffffffffffffffffffffffff168473ffffffffffffffffffffffffffffffffffffffff16036101eb576040517f08c379a00000000000000000000000000000000000000000000000000000000081526004016101e290610b57565b60405180910390fd5b600073ffffffffffffffffffffffffffffffffffffffff168373ffffffffffffffffffffffffffffffffffffffff160361025a576040517f08c379a000000000000000000000000000000000000000000000000000000000815260040161025190610be9565b60405180910390fd5b8273ffffffffffffffffffffffffffffffffffffffff168473ffffffffffffffffffffffffffffffffffffffff16036102c8576040517f08c379a00000000000000000000000000000000000000000000000000000000081526004016102bf90610c7b565b60405180910390fd5b6000821161030b576040517f08c379a000000000000000000000000000000000000000000000000000000000815260040161030290610d0d565b60405180910390fd5b610317843330856105f2565b610342847f00000000000000000000000000000000000000000000000000000000000000008461074a565b60006040518061010001604052808673ffffffffffffffffffffffffffffffffffffffff1681526020018573ffffffffffffffffffffffffffffffffffffffff168152602001610bb862ffffff1681526020013373ffffffffffffffffffffffffffffffffffffffff16815260200142815260200184815260200160008152602001600073ffffffffffffffffffffffffffffffffffffffff1681525090507f000000000000000000000000000000000000000000000000000000000000000073ffffffffffffffffffffffffffffffffffffffff1663414bf389826040518263ffffffff1660e01b815260040161043a9190610e1a565b6020604051808303816000875af1158015610459573d6000803e3d6000fd5b505050506040513d601f19601f8201168201806040525081019061047d9190610e4b565b915060405180608001604052803373ffffffffffffffffffffffffffffffffffffffff1681526020018673ffffffffffffffffffffffffffffffffffffffff1681526020018573ffffffffffffffffffffffffffffffffffffffff16815260200183815250600160006104f0600061089f565b815260200190815260200160002060008201518160000160006101000a81548173ffffffffffffffffffffffffffffffffffffffff021916908373ffffffffffffffffffffffffffffffffffffffff16021790555060208201518160010160006101000a81548173ffffffffffffffffffffffffffffffffffffffff021916908373ffffffffffffffffffffffffffffffffffffffff16021790555060408201518160020160006101000a81548173ffffffffffffffffffffffffffffffffffffffff021916908373ffffffffffffffffffffffffffffffffffffffff160217905550606082015181600301559050506105ea60006108ad565b509392505050565b6000808573ffffffffffffffffffffffffffffffffffffffff166323b872dd60e01b86868660405160240161062993929190610e78565b604051602081830303815290604052907bffffffffffffffffffffffffffffffffffffffffffffffffffffffff19166020820180517bffffffffffffffffffffffffffffffffffffffffffffffffffffffff83818316178352505050506040516106939190610f20565b6000604051808303816000865af19150503d80600081146106d0576040519150601f19603f3d011682016040523d82523d6000602084013e6106d5565b606091505b509150915081801561070357506000815114806107025750808060200190518101906107019190610f6f565b5b5b610742576040517f08c379a000000000000000000000000000000000000000000000000000000000815260040161073990610fe8565b60405180910390fd5b505050505050565b6000808473ffffffffffffffffffffffffffffffffffffffff1663095ea7b360e01b858560405160240161077f929190611008565b604051602081830303815290604052907bffffffffffffffffffffffffffffffffffffffffffffffffffffffff19166020820180517bffffffffffffffffffffffffffffffffffffffffffffffffffffffff83818316178352505050506040516107e99190610f20565b6000604051808303816000865af19150503d8060008114610826576040519150601f19603f3d011682016040523d82523d6000602084013e61082b565b606091505b509150915081801561085957506000815114806108585750808060200190518101906108579190610f6f565b5b5b610898576040517f08c379a000000000000000000000000000000000000000000000000000000000815260040161088f9061107d565b60405180910390fd5b5050505050565b600081600001549050919050565b6001816000016000828254019250508190555050565b600080fd5b6000819050919050565b6108db816108c8565b81146108e657600080fd5b50565b6000813590506108f8816108d2565b92915050565b600060208284031215610914576109136108c3565b5b6000610922848285016108e9565b91505092915050565b600073ffffffffffffffffffffffffffffffffffffffff82169050919050565b60006109568261092b565b9050919050565b6109668161094b565b82525050565b610975816108c8565b82525050565b6000608082019050610990600083018761095d565b61099d602083018661095d565b6109aa604083018561095d565b6109b7606083018461096c565b95945050505050565b6000819050919050565b60006109e56109e06109db8461092b565b6109c0565b61092b565b9050919050565b60006109f7826109ca565b9050919050565b6000610a09826109ec565b9050919050565b610a19816109fe565b82525050565b6000602082019050610a346000830184610a10565b92915050565b610a438161094b565b8114610a4e57600080fd5b50565b600081359050610a6081610a3a565b92915050565b600080600060608486031215610a7f57610a7e6108c3565b5b6000610a8d86828701610a51565b9350506020610a9e86828701610a51565b9250506040610aaf868287016108e9565b9150509250925092565b6000602082019050610ace600083018461096c565b92915050565b600082825260208201905092915050565b7f746f6b656e496e2073686f756c64206e6f742062652061207a65726f2061646460008201527f7265737300000000000000000000000000000000000000000000000000000000602082015250565b6000610b41602483610ad4565b9150610b4c82610ae5565b604082019050919050565b60006020820190508181036000830152610b7081610b34565b9050919050565b7f746f6b656e4f75742073686f756c64206e6f742062652061207a65726f20616460008201527f6472657373000000000000000000000000000000000000000000000000000000602082015250565b6000610bd3602583610ad4565b9150610bde82610b77565b604082019050919050565b60006020820190508181036000830152610c0281610bc6565b9050919050565b7f746f6b656e496e2073686f756c64206e6f7420626520657175616c20746f207460008201527f6f6b656e4f757400000000000000000000000000000000000000000000000000602082015250565b6000610c65602783610ad4565b9150610c7082610c09565b604082019050919050565b60006020820190508181036000830152610c9481610c58565b9050919050565b7f616d6f756e74496e2073686f756c64206e6f742062652061207a65726f20616460008201527f6472657373000000000000000000000000000000000000000000000000000000602082015250565b6000610cf7602583610ad4565b9150610d0282610c9b565b604082019050919050565b60006020820190508181036000830152610d2681610cea565b9050919050565b610d368161094b565b82525050565b600062ffffff82169050919050565b610d5481610d3c565b82525050565b610d63816108c8565b82525050565b610d728161092b565b82525050565b61010082016000820151610d8f6000850182610d2d565b506020820151610da26020850182610d2d565b506040820151610db56040850182610d4b565b506060820151610dc86060850182610d2d565b506080820151610ddb6080850182610d5a565b5060a0820151610dee60a0850182610d5a565b5060c0820151610e0160c0850182610d5a565b5060e0820151610e1460e0850182610d69565b50505050565b600061010082019050610e306000830184610d78565b92915050565b600081519050610e45816108d2565b92915050565b600060208284031215610e6157610e606108c3565b5b6000610e6f84828501610e36565b91505092915050565b6000606082019050610e8d600083018661095d565b610e9a602083018561095d565b610ea7604083018461096c565b949350505050565b600081519050919050565b600081905092915050565b60005b83811015610ee3578082015181840152602081019050610ec8565b60008484015250505050565b6000610efa82610eaf565b610f048185610eba565b9350610f14818560208601610ec5565b80840191505092915050565b6000610f2c8284610eef565b915081905092915050565b60008115159050919050565b610f4c81610f37565b8114610f5757600080fd5b50565b600081519050610f6981610f43565b92915050565b600060208284031215610f8557610f846108c3565b5b6000610f9384828501610f5a565b91505092915050565b7f5354460000000000000000000000000000000000000000000000000000000000600082015250565b6000610fd2600383610ad4565b9150610fdd82610f9c565b602082019050919050565b6000602082019050818103600083015261100181610fc5565b9050919050565b600060408201905061101d600083018561095d565b61102a602083018461096c565b9392505050565b7f5341000000000000000000000000000000000000000000000000000000000000600082015250565b6000611067600283610ad4565b915061107282611031565b602082019050919050565b600060208201905081810360008301526110968161105a565b905091905056fea264697066735822122097a1268d86503f2756c5c234a6f1801b98a7abb61f08ff77bd919b61bbcdc5fd64736f6c63430008110033",
  "linkReferences": {},
  "deployedLinkReferences": {}
}